{
  "_format": "hh-sol-artifact-1",
  "contractName": "NFTMarketplace",
  "sourceName": "contracts/NFTMarketplace.sol",
  "abi": [
    {
      "inputs": [],
      "stateMutability": "nonpayable",
      "type": "constructor"
    },
    {
      "anonymous": false,
      "inputs": [
        {
          "indexed": true,
          "internalType": "address",
          "name": "owner",
          "type": "address"
        },
        {
          "indexed": true,
          "internalType": "address",
          "name": "approved",
          "type": "address"
        },
        {
          "indexed": true,
          "internalType": "uint256",
          "name": "tokenId",
          "type": "uint256"
        }
      ],
      "name": "Approval",
      "type": "event"
    },
    {
      "anonymous": false,
      "inputs": [
        {
          "indexed": true,
          "internalType": "address",
          "name": "owner",
          "type": "address"
        },
        {
          "indexed": true,
          "internalType": "address",
          "name": "operator",
          "type": "address"
        },
        {
          "indexed": false,
          "internalType": "bool",
          "name": "approved",
          "type": "bool"
        }
      ],
      "name": "ApprovalForAll",
      "type": "event"
    },
    {
      "anonymous": false,
      "inputs": [
        {
          "indexed": true,
          "internalType": "uint256",
          "name": "tokenId",
          "type": "uint256"
        },
        {
          "indexed": false,
          "internalType": "address",
          "name": "seller",
          "type": "address"
        },
        {
          "indexed": false,
          "internalType": "address",
          "name": "owner",
          "type": "address"
        },
        {
          "indexed": false,
          "internalType": "uint256",
          "name": "price",
          "type": "uint256"
        },
        {
          "indexed": false,
          "internalType": "bool",
          "name": "sold",
          "type": "bool"
        }
      ],
      "name": "MarketItemCreated",
      "type": "event"
    },
    {
      "anonymous": false,
      "inputs": [
        {
          "indexed": true,
          "internalType": "address",
          "name": "from",
          "type": "address"
        },
        {
          "indexed": true,
          "internalType": "address",
          "name": "to",
          "type": "address"
        },
        {
          "indexed": true,
          "internalType": "uint256",
          "name": "tokenId",
          "type": "uint256"
        }
      ],
      "name": "Transfer",
      "type": "event"
    },
    {
      "inputs": [
        {
          "internalType": "address",
          "name": "to",
          "type": "address"
        },
        {
          "internalType": "uint256",
          "name": "tokenId",
          "type": "uint256"
        }
      ],
      "name": "approve",
      "outputs": [],
      "stateMutability": "nonpayable",
      "type": "function"
    },
    {
      "inputs": [
        {
          "internalType": "address",
          "name": "owner",
          "type": "address"
        }
      ],
      "name": "balanceOf",
      "outputs": [
        {
          "internalType": "uint256",
          "name": "",
          "type": "uint256"
        }
      ],
      "stateMutability": "view",
      "type": "function"
    },
    {
      "inputs": [
        {
          "internalType": "uint256",
          "name": "_tokenId",
          "type": "uint256"
        }
      ],
      "name": "createMarketSale",
      "outputs": [],
      "stateMutability": "payable",
      "type": "function"
    },
    {
      "inputs": [
        {
          "internalType": "string",
          "name": "_tokenURI",
          "type": "string"
        },
        {
          "internalType": "uint256",
          "name": "_price",
          "type": "uint256"
        }
      ],
      "name": "createToken",
      "outputs": [
        {
          "internalType": "uint256",
          "name": "",
          "type": "uint256"
        }
      ],
      "stateMutability": "payable",
      "type": "function"
    },
    {
      "inputs": [],
      "name": "fetchItemListed",
      "outputs": [
        {
          "components": [
            {
              "internalType": "uint256",
              "name": "tokenId",
              "type": "uint256"
            },
            {
              "internalType": "address payable",
              "name": "seller",
              "type": "address"
            },
            {
              "internalType": "address payable",
              "name": "owner",
              "type": "address"
            },
            {
              "internalType": "uint256",
              "name": "price",
              "type": "uint256"
            },
            {
              "internalType": "bool",
              "name": "sold",
              "type": "bool"
            }
          ],
          "internalType": "struct NFTMarketplace.MarketItem[]",
          "name": "",
          "type": "tuple[]"
        }
      ],
      "stateMutability": "view",
      "type": "function"
    },
    {
      "inputs": [],
      "name": "fetchMarketItems",
      "outputs": [
        {
          "components": [
            {
              "internalType": "uint256",
              "name": "tokenId",
              "type": "uint256"
            },
            {
              "internalType": "address payable",
              "name": "seller",
              "type": "address"
            },
            {
              "internalType": "address payable",
              "name": "owner",
              "type": "address"
            },
            {
              "internalType": "uint256",
              "name": "price",
              "type": "uint256"
            },
            {
              "internalType": "bool",
              "name": "sold",
              "type": "bool"
            }
          ],
          "internalType": "struct NFTMarketplace.MarketItem[]",
          "name": "",
          "type": "tuple[]"
        }
      ],
      "stateMutability": "view",
      "type": "function"
    },
    {
      "inputs": [],
      "name": "fetchMyNFTs",
      "outputs": [
        {
          "components": [
            {
              "internalType": "uint256",
              "name": "tokenId",
              "type": "uint256"
            },
            {
              "internalType": "address payable",
              "name": "seller",
              "type": "address"
            },
            {
              "internalType": "address payable",
              "name": "owner",
              "type": "address"
            },
            {
              "internalType": "uint256",
              "name": "price",
              "type": "uint256"
            },
            {
              "internalType": "bool",
              "name": "sold",
              "type": "bool"
            }
          ],
          "internalType": "struct NFTMarketplace.MarketItem[]",
          "name": "",
          "type": "tuple[]"
        }
      ],
      "stateMutability": "view",
      "type": "function"
    },
    {
      "inputs": [
        {
          "internalType": "uint256",
          "name": "tokenId",
          "type": "uint256"
        }
      ],
      "name": "getApproved",
      "outputs": [
        {
          "internalType": "address",
          "name": "",
          "type": "address"
        }
      ],
      "stateMutability": "view",
      "type": "function"
    },
    {
      "inputs": [],
      "name": "getListingPrice",
      "outputs": [
        {
          "internalType": "uint256",
          "name": "",
          "type": "uint256"
        }
      ],
      "stateMutability": "view",
      "type": "function"
    },
    {
      "inputs": [
        {
          "internalType": "address",
          "name": "owner",
          "type": "address"
        },
        {
          "internalType": "address",
          "name": "operator",
          "type": "address"
        }
      ],
      "name": "isApprovedForAll",
      "outputs": [
        {
          "internalType": "bool",
          "name": "",
          "type": "bool"
        }
      ],
      "stateMutability": "view",
      "type": "function"
    },
    {
      "inputs": [],
      "name": "name",
      "outputs": [
        {
          "internalType": "string",
          "name": "",
          "type": "string"
        }
      ],
      "stateMutability": "view",
      "type": "function"
    },
    {
      "inputs": [
        {
          "internalType": "uint256",
          "name": "tokenId",
          "type": "uint256"
        }
      ],
      "name": "ownerOf",
      "outputs": [
        {
          "internalType": "address",
          "name": "",
          "type": "address"
        }
      ],
      "stateMutability": "view",
      "type": "function"
    },
    {
      "inputs": [
        {
          "internalType": "uint256",
          "name": "_tokenId",
          "type": "uint256"
        },
        {
          "internalType": "uint256",
          "name": "_price",
          "type": "uint256"
        }
      ],
      "name": "resellToken",
      "outputs": [],
      "stateMutability": "payable",
      "type": "function"
    },
    {
      "inputs": [
        {
          "internalType": "address",
          "name": "from",
          "type": "address"
        },
        {
          "internalType": "address",
          "name": "to",
          "type": "address"
        },
        {
          "internalType": "uint256",
          "name": "tokenId",
          "type": "uint256"
        }
      ],
      "name": "safeTransferFrom",
      "outputs": [],
      "stateMutability": "nonpayable",
      "type": "function"
    },
    {
      "inputs": [
        {
          "internalType": "address",
          "name": "from",
          "type": "address"
        },
        {
          "internalType": "address",
          "name": "to",
          "type": "address"
        },
        {
          "internalType": "uint256",
          "name": "tokenId",
          "type": "uint256"
        },
        {
          "internalType": "bytes",
          "name": "_data",
          "type": "bytes"
        }
      ],
      "name": "safeTransferFrom",
      "outputs": [],
      "stateMutability": "nonpayable",
      "type": "function"
    },
    {
      "inputs": [
        {
          "internalType": "address",
          "name": "operator",
          "type": "address"
        },
        {
          "internalType": "bool",
          "name": "approved",
          "type": "bool"
        }
      ],
      "name": "setApprovalForAll",
      "outputs": [],
      "stateMutability": "nonpayable",
      "type": "function"
    },
    {
      "inputs": [
        {
          "internalType": "bytes4",
          "name": "interfaceId",
          "type": "bytes4"
        }
      ],
      "name": "supportsInterface",
      "outputs": [
        {
          "internalType": "bool",
          "name": "",
          "type": "bool"
        }
      ],
      "stateMutability": "view",
      "type": "function"
    },
    {
      "inputs": [],
      "name": "symbol",
      "outputs": [
        {
          "internalType": "string",
          "name": "",
          "type": "string"
        }
      ],
      "stateMutability": "view",
      "type": "function"
    },
    {
      "inputs": [
        {
          "internalType": "uint256",
          "name": "tokenId",
          "type": "uint256"
        }
      ],
      "name": "tokenURI",
      "outputs": [
        {
          "internalType": "string",
          "name": "",
          "type": "string"
        }
      ],
      "stateMutability": "view",
      "type": "function"
    },
    {
      "inputs": [
        {
          "internalType": "address",
          "name": "from",
          "type": "address"
        },
        {
          "internalType": "address",
          "name": "to",
          "type": "address"
        },
        {
          "internalType": "uint256",
          "name": "tokenId",
          "type": "uint256"
        }
      ],
      "name": "transferFrom",
      "outputs": [],
      "stateMutability": "nonpayable",
      "type": "function"
    },
    {
      "inputs": [
        {
          "internalType": "uint256",
          "name": "_listingPrice",
          "type": "uint256"
        }
      ],
      "name": "updateListingPrice",
      "outputs": [],
      "stateMutability": "payable",
      "type": "function"
    }
  ],
  "bytecode": "0x60806040526658d15e176280006009553480156200001c57600080fd5b506040518060400160405280600981526020017f4d657461766572736500000000000000000000000000000000000000000000008152506040518060400160405280600481526020017f4d455454000000000000000000000000000000000000000000000000000000008152508160009080519060200190620000a192919062000104565b508060019080519060200190620000ba92919062000104565b50505033600a60006101000a81548173ffffffffffffffffffffffffffffffffffffffff021916908373ffffffffffffffffffffffffffffffffffffffff16021790555062000219565b8280546200011290620001b4565b90600052602060002090601f01602090048101928262000136576000855562000182565b82601f106200015157805160ff191683800117855562000182565b8280016001018555821562000182579182015b828111156200018157825182559160200191906001019062000164565b5b50905062000191919062000195565b5090565b5b80821115620001b057600081600090555060010162000196565b5090565b60006002820490506001821680620001cd57607f821691505b60208210811415620001e457620001e3620001ea565b5b50919050565b7f4e487b7100000000000000000000000000000000000000000000000000000000600052602260045260246000fd5b61439b80620002296000396000f3fe60806040526004361061012a5760003560e01c806370a08231116100ab578063b88d4fde1161006f578063b88d4fde146103ea578063be9af53614610413578063c87b56dd1461042f578063e17914451461046c578063e219fc7514610497578063e985e9c5146104b35761012a565b806370a082311461030d57806372b3b6201461034a57806395d89b411461037a578063a22cb465146103a5578063ae677aa3146103ce5761012a565b806312e85585116100f257806312e8558514610228578063202e37401461025357806323b872dd1461027e57806342842e0e146102a75780636352211e146102d05761012a565b806301ffc9a71461012f57806306fdde031461016c578063081812fc14610197578063095ea7b3146101d45780630f08efe0146101fd575b600080fd5b34801561013b57600080fd5b5061015660048036038101906101519190612edb565b6104f0565b60405161016391906135b5565b60405180910390f35b34801561017857600080fd5b506101816105d2565b60405161018e91906135d0565b60405180910390f35b3480156101a357600080fd5b506101be60048036038101906101b99190612f81565b610664565b6040516101cb91906134e7565b60405180910390f35b3480156101e057600080fd5b506101fb60048036038101906101f69190612e9f565b6106e9565b005b34801561020957600080fd5b50610212610801565b60405161021f9190613593565b60405180910390f35b34801561023457600080fd5b5061023d610af5565b60405161024a91906138b2565b60405180910390f35b34801561025f57600080fd5b50610268610aff565b6040516102759190613593565b60405180910390f35b34801561028a57600080fd5b506102a560048036038101906102a09190612d99565b610e39565b005b3480156102b357600080fd5b506102ce60048036038101906102c99190612d99565b610e99565b005b3480156102dc57600080fd5b506102f760048036038101906102f29190612f81565b610eb9565b60405161030491906134e7565b60405180910390f35b34801561031957600080fd5b50610334600480360381019061032f9190612d34565b610f6b565b60405161034191906138b2565b60405180910390f35b610364600480360381019061035f9190612f2d565b611023565b60405161037191906138b2565b60405180910390f35b34801561038657600080fd5b5061038f611065565b60405161039c91906135d0565b60405180910390f35b3480156103b157600080fd5b506103cc60048036038101906103c79190612e63565b6110f7565b005b6103e860048036038101906103e39190612f81565b61110d565b005b3480156103f657600080fd5b50610411600480360381019061040c9190612de8565b6111a7565b005b61042d60048036038101906104289190612f81565b611209565b005b34801561043b57600080fd5b5061045660048036038101906104519190612f81565b611441565b60405161046391906135d0565b60405180910390f35b34801561047857600080fd5b50610481611593565b60405161048e9190613593565b60405180910390f35b6104b160048036038101906104ac9190612faa565b6118cd565b005b3480156104bf57600080fd5b506104da60048036038101906104d59190612d5d565b611ac2565b6040516104e791906135b5565b60405180910390f35b60007f80ac58cd000000000000000000000000000000000000000000000000000000007bffffffffffffffffffffffffffffffffffffffffffffffffffffffff1916827bffffffffffffffffffffffffffffffffffffffffffffffffffffffff191614806105bb57507f5b5e139f000000000000000000000000000000000000000000000000000000007bffffffffffffffffffffffffffffffffffffffffffffffffffffffff1916827bffffffffffffffffffffffffffffffffffffffffffffffffffffffff1916145b806105cb57506105ca82611b56565b5b9050919050565b6060600080546105e190613b53565b80601f016020809104026020016040519081016040528092919081815260200182805461060d90613b53565b801561065a5780601f1061062f5761010080835404028352916020019161065a565b820191906000526020600020905b81548152906001019060200180831161063d57829003601f168201915b5050505050905090565b600061066f82611bc0565b6106ae576040517f08c379a00000000000000000000000000000000000000000000000000000000081526004016106a5906137d2565b60405180910390fd5b6004600083815260200190815260200160002060009054906101000a900473ffffffffffffffffffffffffffffffffffffffff169050919050565b60006106f482610eb9565b90508073ffffffffffffffffffffffffffffffffffffffff168373ffffffffffffffffffffffffffffffffffffffff161415610765576040517f08c379a000000000000000000000000000000000000000000000000000000000815260040161075c90613812565b60405180910390fd5b8073ffffffffffffffffffffffffffffffffffffffff16610784611c2c565b73ffffffffffffffffffffffffffffffffffffffff1614806107b357506107b2816107ad611c2c565b611ac2565b5b6107f2576040517f08c379a00000000000000000000000000000000000000000000000000000000081526004016107e9906136d2565b60405180910390fd5b6107fc8383611c34565b505050565b6060600061080f6007611ced565b9050600061081d6008611ced565b6108276007611ced565b6108319190613a57565b90506000808267ffffffffffffffff811115610876577f4e487b7100000000000000000000000000000000000000000000000000000000600052604160045260246000fd5b6040519080825280602002602001820160405280156108af57816020015b61089c612afb565b8152602001906001900390816108945790505b50905060005b84811015610aea573073ffffffffffffffffffffffffffffffffffffffff16600b60006001846108e591906139d0565b815260200190815260200160002060020160009054906101000a900473ffffffffffffffffffffffffffffffffffffffff1673ffffffffffffffffffffffffffffffffffffffff1614801561096d575060001515600b600060018461094a91906139d0565b815260200190815260200160002060040160009054906101000a900460ff161515145b15610ad757600060018261098191906139d0565b90506000600b60008381526020019081526020016000209050806040518060a0016040529081600082015481526020016001820160009054906101000a900473ffffffffffffffffffffffffffffffffffffffff1673ffffffffffffffffffffffffffffffffffffffff1673ffffffffffffffffffffffffffffffffffffffff1681526020016002820160009054906101000a900473ffffffffffffffffffffffffffffffffffffffff1673ffffffffffffffffffffffffffffffffffffffff1673ffffffffffffffffffffffffffffffffffffffff168152602001600382015481526020016004820160009054906101000a900460ff161515151581525050848681518110610aba577f4e487b7100000000000000000000000000000000000000000000000000000000600052603260045260246000fd5b6020026020010181905250600185610ad291906139d0565b945050505b8080610ae290613bb6565b9150506108b5565b508094505050505090565b6000600954905090565b60606000610b0d6007611ced565b905060008060005b83811015610bb6573373ffffffffffffffffffffffffffffffffffffffff16600b6000600184610b4591906139d0565b815260200190815260200160002060010160009054906101000a900473ffffffffffffffffffffffffffffffffffffffff1673ffffffffffffffffffffffffffffffffffffffff161415610ba357600183610ba091906139d0565b92505b8080610bae90613bb6565b915050610b15565b5060008267ffffffffffffffff811115610bf9577f4e487b7100000000000000000000000000000000000000000000000000000000600052604160045260246000fd5b604051908082528060200260200182016040528015610c3257816020015b610c1f612afb565b815260200190600190039081610c175790505b50905060005b84811015610e2e573373ffffffffffffffffffffffffffffffffffffffff16600b6000600184610c6891906139d0565b815260200190815260200160002060020160009054906101000a900473ffffffffffffffffffffffffffffffffffffffff1673ffffffffffffffffffffffffffffffffffffffff161415610e1b576000600182610cc591906139d0565b90506000600b60008381526020019081526020016000209050806040518060a0016040529081600082015481526020016001820160009054906101000a900473ffffffffffffffffffffffffffffffffffffffff1673ffffffffffffffffffffffffffffffffffffffff1673ffffffffffffffffffffffffffffffffffffffff1681526020016002820160009054906101000a900473ffffffffffffffffffffffffffffffffffffffff1673ffffffffffffffffffffffffffffffffffffffff1673ffffffffffffffffffffffffffffffffffffffff168152602001600382015481526020016004820160009054906101000a900460ff161515151581525050848681518110610dfe577f4e487b7100000000000000000000000000000000000000000000000000000000600052603260045260246000fd5b6020026020010181905250600185610e1691906139d0565b945050505b8080610e2690613bb6565b915050610c38565b508094505050505090565b610e4a610e44611c2c565b82611cfb565b610e89576040517f08c379a0000000000000000000000000000000000000000000000000000000008152600401610e8090613872565b60405180910390fd5b610e94838383611dd9565b505050565b610eb4838383604051806020016040528060008152506111a7565b505050565b6000806002600084815260200190815260200160002060009054906101000a900473ffffffffffffffffffffffffffffffffffffffff169050600073ffffffffffffffffffffffffffffffffffffffff168173ffffffffffffffffffffffffffffffffffffffff161415610f62576040517f08c379a0000000000000000000000000000000000000000000000000000000008152600401610f5990613712565b60405180910390fd5b80915050919050565b60008073ffffffffffffffffffffffffffffffffffffffff168273ffffffffffffffffffffffffffffffffffffffff161415610fdc576040517f08c379a0000000000000000000000000000000000000000000000000000000008152600401610fd3906136f2565b60405180910390fd5b600360008373ffffffffffffffffffffffffffffffffffffffff1673ffffffffffffffffffffffffffffffffffffffff168152602001908152602001600020549050919050565b600061102f6007612040565b600061103b6007611ced565b90506110473382612056565b6110518185612230565b61105b81846122a4565b8091505092915050565b60606001805461107490613b53565b80601f01602080910402602001604051908101604052809291908181526020018280546110a090613b53565b80156110ed5780601f106110c2576101008083540402835291602001916110ed565b820191906000526020600020905b8154815290600101906020018083116110d057829003601f168201915b5050505050905090565b611109611102611c2c565b83836124a7565b5050565b3373ffffffffffffffffffffffffffffffffffffffff16600a60009054906101000a900473ffffffffffffffffffffffffffffffffffffffff1673ffffffffffffffffffffffffffffffffffffffff161461119d576040517f08c379a000000000000000000000000000000000000000000000000000000000815260040161119490613852565b60405180910390fd5b8060098190555050565b6111b86111b2611c2c565b83611cfb565b6111f7576040517f08c379a00000000000000000000000000000000000000000000000000000000081526004016111ee90613872565b60405180910390fd5b61120384848484612614565b50505050565b6000600b6000838152602001908152602001600020600301549050803414611266576040517f08c379a000000000000000000000000000000000000000000000000000000000815260040161125d90613892565b60405180910390fd5b33600b600084815260200190815260200160002060020160006101000a81548173ffffffffffffffffffffffffffffffffffffffff021916908373ffffffffffffffffffffffffffffffffffffffff1602179055506001600b600084815260200190815260200160002060040160006101000a81548160ff0219169083151502179055506000600b600084815260200190815260200160002060010160006101000a81548173ffffffffffffffffffffffffffffffffffffffff021916908373ffffffffffffffffffffffffffffffffffffffff16021790555061134a6008612040565b611355303384611dd9565b600a60009054906101000a900473ffffffffffffffffffffffffffffffffffffffff1673ffffffffffffffffffffffffffffffffffffffff166108fc6009549081150290604051600060405180830381858888f193505050501580156113bf573d6000803e3d6000fd5b50600b600083815260200190815260200160002060010160009054906101000a900473ffffffffffffffffffffffffffffffffffffffff1673ffffffffffffffffffffffffffffffffffffffff166108fc349081150290604051600060405180830381858888f1935050505015801561143c573d6000803e3d6000fd5b505050565b606061144c82611bc0565b61148b576040517f08c379a000000000000000000000000000000000000000000000000000000000815260040161148290613792565b60405180910390fd5b60006006600084815260200190815260200160002080546114ab90613b53565b80601f01602080910402602001604051908101604052809291908181526020018280546114d790613b53565b80156115245780601f106114f957610100808354040283529160200191611524565b820191906000526020600020905b81548152906001019060200180831161150757829003601f168201915b505050505090506000611535612670565b905060008151141561154b57819250505061158e565b6000825111156115805780826040516020016115689291906134c3565b6040516020818303038152906040529250505061158e565b61158984612687565b925050505b919050565b606060006115a16007611ced565b905060008060005b8381101561164a573373ffffffffffffffffffffffffffffffffffffffff16600b60006001846115d991906139d0565b815260200190815260200160002060010160009054906101000a900473ffffffffffffffffffffffffffffffffffffffff1673ffffffffffffffffffffffffffffffffffffffff1614156116375760018361163491906139d0565b92505b808061164290613bb6565b9150506115a9565b5060008267ffffffffffffffff81111561168d577f4e487b7100000000000000000000000000000000000000000000000000000000600052604160045260246000fd5b6040519080825280602002602001820160405280156116c657816020015b6116b3612afb565b8152602001906001900390816116ab5790505b50905060005b848110156118c2573373ffffffffffffffffffffffffffffffffffffffff16600b60006001846116fc91906139d0565b815260200190815260200160002060010160009054906101000a900473ffffffffffffffffffffffffffffffffffffffff1673ffffffffffffffffffffffffffffffffffffffff1614156118af57600060018261175991906139d0565b90506000600b60008381526020019081526020016000209050806040518060a0016040529081600082015481526020016001820160009054906101000a900473ffffffffffffffffffffffffffffffffffffffff1673ffffffffffffffffffffffffffffffffffffffff1673ffffffffffffffffffffffffffffffffffffffff1681526020016002820160009054906101000a900473ffffffffffffffffffffffffffffffffffffffff1673ffffffffffffffffffffffffffffffffffffffff1673ffffffffffffffffffffffffffffffffffffffff168152602001600382015481526020016004820160009054906101000a900460ff161515151581525050848681518110611892577f4e487b7100000000000000000000000000000000000000000000000000000000600052603260045260246000fd5b60200260200101819052506001856118aa91906139d0565b945050505b80806118ba90613bb6565b9150506116cc565b508094505050505090565b3373ffffffffffffffffffffffffffffffffffffffff16600b600084815260200190815260200160002060020160009054906101000a900473ffffffffffffffffffffffffffffffffffffffff1673ffffffffffffffffffffffffffffffffffffffff1614611971576040517f08c379a0000000000000000000000000000000000000000000000000000000008152600401611968906137b2565b60405180910390fd5b60095434146119b5576040517f08c379a00000000000000000000000000000000000000000000000000000000081526004016119ac90613752565b60405180910390fd5b6000600b600084815260200190815260200160002060040160006101000a81548160ff02191690831515021790555080600b60008481526020019081526020016000206003018190555033600b600084815260200190815260200160002060010160006101000a81548173ffffffffffffffffffffffffffffffffffffffff021916908373ffffffffffffffffffffffffffffffffffffffff16021790555030600b600084815260200190815260200160002060020160006101000a81548173ffffffffffffffffffffffffffffffffffffffff021916908373ffffffffffffffffffffffffffffffffffffffff160217905550611ab3600861272e565b611abe333084611dd9565b5050565b6000600560008473ffffffffffffffffffffffffffffffffffffffff1673ffffffffffffffffffffffffffffffffffffffff16815260200190815260200160002060008373ffffffffffffffffffffffffffffffffffffffff1673ffffffffffffffffffffffffffffffffffffffff16815260200190815260200160002060009054906101000a900460ff16905092915050565b60007f01ffc9a7000000000000000000000000000000000000000000000000000000007bffffffffffffffffffffffffffffffffffffffffffffffffffffffff1916827bffffffffffffffffffffffffffffffffffffffffffffffffffffffff1916149050919050565b60008073ffffffffffffffffffffffffffffffffffffffff166002600084815260200190815260200160002060009054906101000a900473ffffffffffffffffffffffffffffffffffffffff1673ffffffffffffffffffffffffffffffffffffffff1614159050919050565b600033905090565b816004600083815260200190815260200160002060006101000a81548173ffffffffffffffffffffffffffffffffffffffff021916908373ffffffffffffffffffffffffffffffffffffffff160217905550808273ffffffffffffffffffffffffffffffffffffffff16611ca783610eb9565b73ffffffffffffffffffffffffffffffffffffffff167f8c5be1e5ebec7d5bd14f71427d1e84f3dd0314c0f7b2291e5b200ac8c7c3b92560405160405180910390a45050565b600081600001549050919050565b6000611d0682611bc0565b611d45576040517f08c379a0000000000000000000000000000000000000000000000000000000008152600401611d3c906136b2565b60405180910390fd5b6000611d5083610eb9565b90508073ffffffffffffffffffffffffffffffffffffffff168473ffffffffffffffffffffffffffffffffffffffff161480611dbf57508373ffffffffffffffffffffffffffffffffffffffff16611da784610664565b73ffffffffffffffffffffffffffffffffffffffff16145b80611dd05750611dcf8185611ac2565b5b91505092915050565b8273ffffffffffffffffffffffffffffffffffffffff16611df982610eb9565b73ffffffffffffffffffffffffffffffffffffffff1614611e4f576040517f08c379a0000000000000000000000000000000000000000000000000000000008152600401611e4690613632565b60405180910390fd5b600073ffffffffffffffffffffffffffffffffffffffff168273ffffffffffffffffffffffffffffffffffffffff161415611ebf576040517f08c379a0000000000000000000000000000000000000000000000000000000008152600401611eb690613672565b60405180910390fd5b611eca83838361278a565b611ed5600082611c34565b6001600360008573ffffffffffffffffffffffffffffffffffffffff1673ffffffffffffffffffffffffffffffffffffffff1681526020019081526020016000206000828254611f259190613a57565b925050819055506001600360008473ffffffffffffffffffffffffffffffffffffffff1673ffffffffffffffffffffffffffffffffffffffff1681526020019081526020016000206000828254611f7c91906139d0565b92505081905550816002600083815260200190815260200160002060006101000a81548173ffffffffffffffffffffffffffffffffffffffff021916908373ffffffffffffffffffffffffffffffffffffffff160217905550808273ffffffffffffffffffffffffffffffffffffffff168473ffffffffffffffffffffffffffffffffffffffff167fddf252ad1be2c89b69c2b068fc378daa952ba7f163c4a11628f55a4df523b3ef60405160405180910390a461203b83838361278f565b505050565b6001816000016000828254019250508190555050565b600073ffffffffffffffffffffffffffffffffffffffff168273ffffffffffffffffffffffffffffffffffffffff1614156120c6576040517f08c379a00000000000000000000000000000000000000000000000000000000081526004016120bd90613772565b60405180910390fd5b6120cf81611bc0565b1561210f576040517f08c379a000000000000000000000000000000000000000000000000000000000815260040161210690613652565b60405180910390fd5b61211b6000838361278a565b6001600360008473ffffffffffffffffffffffffffffffffffffffff1673ffffffffffffffffffffffffffffffffffffffff168152602001908152602001600020600082825461216b91906139d0565b92505081905550816002600083815260200190815260200160002060006101000a81548173ffffffffffffffffffffffffffffffffffffffff021916908373ffffffffffffffffffffffffffffffffffffffff160217905550808273ffffffffffffffffffffffffffffffffffffffff16600073ffffffffffffffffffffffffffffffffffffffff167fddf252ad1be2c89b69c2b068fc378daa952ba7f163c4a11628f55a4df523b3ef60405160405180910390a461222c6000838361278f565b5050565b61223982611bc0565b612278576040517f08c379a000000000000000000000000000000000000000000000000000000000815260040161226f90613732565b60405180910390fd5b8060066000848152602001908152602001600020908051906020019061229f929190612b58565b505050565b600081116122e7576040517f08c379a00000000000000000000000000000000000000000000000000000000081526004016122de90613832565b60405180910390fd5b600954341461232b576040517f08c379a000000000000000000000000000000000000000000000000000000000815260040161232290613752565b60405180910390fd5b6040518060a001604052808381526020013373ffffffffffffffffffffffffffffffffffffffff1681526020013073ffffffffffffffffffffffffffffffffffffffff16815260200182815260200160001515815250600b60008481526020019081526020016000206000820151816000015560208201518160010160006101000a81548173ffffffffffffffffffffffffffffffffffffffff021916908373ffffffffffffffffffffffffffffffffffffffff16021790555060408201518160020160006101000a81548173ffffffffffffffffffffffffffffffffffffffff021916908373ffffffffffffffffffffffffffffffffffffffff1602179055506060820151816003015560808201518160040160006101000a81548160ff021916908315150217905550905050612464333084611dd9565b817fb640004f1d14576d0c209e240cad0410e0d8c0c33a09375861fbadae2588a98d333084600060405161249b9493929190613502565b60405180910390a25050565b8173ffffffffffffffffffffffffffffffffffffffff168373ffffffffffffffffffffffffffffffffffffffff161415612516576040517f08c379a000000000000000000000000000000000000000000000000000000000815260040161250d90613692565b60405180910390fd5b80600560008573ffffffffffffffffffffffffffffffffffffffff1673ffffffffffffffffffffffffffffffffffffffff16815260200190815260200160002060008473ffffffffffffffffffffffffffffffffffffffff1673ffffffffffffffffffffffffffffffffffffffff16815260200190815260200160002060006101000a81548160ff0219169083151502179055508173ffffffffffffffffffffffffffffffffffffffff168373ffffffffffffffffffffffffffffffffffffffff167f17307eab39ab6107e8899845ad3d59bd9653f200f220920489ca2b5937696c318360405161260791906135b5565b60405180910390a3505050565b61261f848484611dd9565b61262b84848484612794565b61266a576040517f08c379a000000000000000000000000000000000000000000000000000000000815260040161266190613612565b60405180910390fd5b50505050565b606060405180602001604052806000815250905090565b606061269282611bc0565b6126d1576040517f08c379a00000000000000000000000000000000000000000000000000000000081526004016126c8906137f2565b60405180910390fd5b60006126db612670565b905060008151116126fb5760405180602001604052806000815250612726565b806127058461292b565b6040516020016127169291906134c3565b6040516020818303038152906040525b915050919050565b6000816000015490506000811161277a576040517f08c379a0000000000000000000000000000000000000000000000000000000008152600401612771906135f2565b60405180910390fd5b6001810382600001819055505050565b505050565b505050565b60006127b58473ffffffffffffffffffffffffffffffffffffffff16612ad8565b1561291e578373ffffffffffffffffffffffffffffffffffffffff1663150b7a026127de611c2c565b8786866040518563ffffffff1660e01b81526004016128009493929190613547565b602060405180830381600087803b15801561281a57600080fd5b505af192505050801561284b57506040513d601f19601f820116820180604052508101906128489190612f04565b60015b6128ce573d806000811461287b576040519150601f19603f3d011682016040523d82523d6000602084013e612880565b606091505b506000815114156128c6576040517f08c379a00000000000000000000000000000000000000000000000000000000081526004016128bd90613612565b60405180910390fd5b805181602001fd5b63150b7a0260e01b7bffffffffffffffffffffffffffffffffffffffffffffffffffffffff1916817bffffffffffffffffffffffffffffffffffffffffffffffffffffffff191614915050612923565b600190505b949350505050565b60606000821415612973576040518060400160405280600181526020017f30000000000000000000000000000000000000000000000000000000000000008152509050612ad3565b600082905060005b600082146129a557808061298e90613bb6565b915050600a8261299e9190613a26565b915061297b565b60008167ffffffffffffffff8111156129e7577f4e487b7100000000000000000000000000000000000000000000000000000000600052604160045260246000fd5b6040519080825280601f01601f191660200182016040528015612a195781602001600182028036833780820191505090505b5090505b60008514612acc57600182612a329190613a57565b9150600a85612a419190613bff565b6030612a4d91906139d0565b60f81b818381518110612a89577f4e487b7100000000000000000000000000000000000000000000000000000000600052603260045260246000fd5b60200101907effffffffffffffffffffffffffffffffffffffffffffffffffffffffffffff1916908160001a905350600a85612ac59190613a26565b9450612a1d565b8093505050505b919050565b6000808273ffffffffffffffffffffffffffffffffffffffff163b119050919050565b6040518060a0016040528060008152602001600073ffffffffffffffffffffffffffffffffffffffff168152602001600073ffffffffffffffffffffffffffffffffffffffff168152602001600081526020016000151581525090565b828054612b6490613b53565b90600052602060002090601f016020900481019282612b865760008555612bcd565b82601f10612b9f57805160ff1916838001178555612bcd565b82800160010185558215612bcd579182015b82811115612bcc578251825591602001919060010190612bb1565b5b509050612bda9190612bde565b5090565b5b80821115612bf7576000816000905550600101612bdf565b5090565b6000612c0e612c09846138f2565b6138cd565b905082815260208101848484011115612c2657600080fd5b612c31848285613b11565b509392505050565b6000612c4c612c4784613923565b6138cd565b905082815260208101848484011115612c6457600080fd5b612c6f848285613b11565b509392505050565b600081359050612c8681614309565b92915050565b600081359050612c9b81614320565b92915050565b600081359050612cb081614337565b92915050565b600081519050612cc581614337565b92915050565b600082601f830112612cdc57600080fd5b8135612cec848260208601612bfb565b91505092915050565b600082601f830112612d0657600080fd5b8135612d16848260208601612c39565b91505092915050565b600081359050612d2e8161434e565b92915050565b600060208284031215612d4657600080fd5b6000612d5484828501612c77565b91505092915050565b60008060408385031215612d7057600080fd5b6000612d7e85828601612c77565b9250506020612d8f85828601612c77565b9150509250929050565b600080600060608486031215612dae57600080fd5b6000612dbc86828701612c77565b9350506020612dcd86828701612c77565b9250506040612dde86828701612d1f565b9150509250925092565b60008060008060808587031215612dfe57600080fd5b6000612e0c87828801612c77565b9450506020612e1d87828801612c77565b9350506040612e2e87828801612d1f565b925050606085013567ffffffffffffffff811115612e4b57600080fd5b612e5787828801612ccb565b91505092959194509250565b60008060408385031215612e7657600080fd5b6000612e8485828601612c77565b9250506020612e9585828601612c8c565b9150509250929050565b60008060408385031215612eb257600080fd5b6000612ec085828601612c77565b9250506020612ed185828601612d1f565b9150509250929050565b600060208284031215612eed57600080fd5b6000612efb84828501612ca1565b91505092915050565b600060208284031215612f1657600080fd5b6000612f2484828501612cb6565b91505092915050565b60008060408385031215612f4057600080fd5b600083013567ffffffffffffffff811115612f5a57600080fd5b612f6685828601612cf5565b9250506020612f7785828601612d1f565b9150509250929050565b600060208284031215612f9357600080fd5b6000612fa184828501612d1f565b91505092915050565b60008060408385031215612fbd57600080fd5b6000612fcb85828601612d1f565b9250506020612fdc85828601612d1f565b9150509250929050565b6000612ff2838361343d565b60a08301905092915050565b61300781613a9d565b82525050565b61301681613a8b565b82525050565b600061302782613964565b6130318185613992565b935061303c83613954565b8060005b8381101561306d5781516130548882612fe6565b975061305f83613985565b925050600181019050613040565b5085935050505092915050565b61308381613aaf565b82525050565b61309281613aaf565b82525050565b60006130a38261396f565b6130ad81856139a3565b93506130bd818560208601613b20565b6130c681613cec565b840191505092915050565b60006130dc8261397a565b6130e681856139b4565b93506130f6818560208601613b20565b6130ff81613cec565b840191505092915050565b60006131158261397a565b61311f81856139c5565b935061312f818560208601613b20565b80840191505092915050565b6000613148601b836139b4565b915061315382613cfd565b602082019050919050565b600061316b6032836139b4565b915061317682613d26565b604082019050919050565b600061318e6025836139b4565b915061319982613d75565b604082019050919050565b60006131b1601c836139b4565b91506131bc82613dc4565b602082019050919050565b60006131d46024836139b4565b91506131df82613ded565b604082019050919050565b60006131f76019836139b4565b915061320282613e3c565b602082019050919050565b600061321a602c836139b4565b915061322582613e65565b604082019050919050565b600061323d6038836139b4565b915061324882613eb4565b604082019050919050565b6000613260602a836139b4565b915061326b82613f03565b604082019050919050565b60006132836029836139b4565b915061328e82613f52565b604082019050919050565b60006132a6602e836139b4565b91506132b182613fa1565b604082019050919050565b60006132c96024836139b4565b91506132d482613ff0565b604082019050919050565b60006132ec6020836139b4565b91506132f78261403f565b602082019050919050565b600061330f6031836139b4565b915061331a82614068565b604082019050919050565b6000613332602a836139b4565b915061333d826140b7565b604082019050919050565b6000613355602c836139b4565b915061336082614106565b604082019050919050565b6000613378602f836139b4565b915061338382614155565b604082019050919050565b600061339b6021836139b4565b91506133a6826141a4565b604082019050919050565b60006133be6018836139b4565b91506133c9826141f3565b602082019050919050565b60006133e16027836139b4565b91506133ec8261421c565b604082019050919050565b60006134046031836139b4565b915061340f8261426b565b604082019050919050565b6000613427603f836139b4565b9150613432826142ba565b604082019050919050565b60a08201600082015161345360008501826134a5565b5060208201516134666020850182612ffe565b5060408201516134796040850182612ffe565b50606082015161348c60608501826134a5565b50608082015161349f608085018261307a565b50505050565b6134ae81613b07565b82525050565b6134bd81613b07565b82525050565b60006134cf828561310a565b91506134db828461310a565b91508190509392505050565b60006020820190506134fc600083018461300d565b92915050565b6000608082019050613517600083018761300d565b613524602083018661300d565b61353160408301856134b4565b61353e6060830184613089565b95945050505050565b600060808201905061355c600083018761300d565b613569602083018661300d565b61357660408301856134b4565b81810360608301526135888184613098565b905095945050505050565b600060208201905081810360008301526135ad818461301c565b905092915050565b60006020820190506135ca6000830184613089565b92915050565b600060208201905081810360008301526135ea81846130d1565b905092915050565b6000602082019050818103600083015261360b8161313b565b9050919050565b6000602082019050818103600083015261362b8161315e565b9050919050565b6000602082019050818103600083015261364b81613181565b9050919050565b6000602082019050818103600083015261366b816131a4565b9050919050565b6000602082019050818103600083015261368b816131c7565b9050919050565b600060208201905081810360008301526136ab816131ea565b9050919050565b600060208201905081810360008301526136cb8161320d565b9050919050565b600060208201905081810360008301526136eb81613230565b9050919050565b6000602082019050818103600083015261370b81613253565b9050919050565b6000602082019050818103600083015261372b81613276565b9050919050565b6000602082019050818103600083015261374b81613299565b9050919050565b6000602082019050818103600083015261376b816132bc565b9050919050565b6000602082019050818103600083015261378b816132df565b9050919050565b600060208201905081810360008301526137ab81613302565b9050919050565b600060208201905081810360008301526137cb81613325565b9050919050565b600060208201905081810360008301526137eb81613348565b9050919050565b6000602082019050818103600083015261380b8161336b565b9050919050565b6000602082019050818103600083015261382b8161338e565b9050919050565b6000602082019050818103600083015261384b816133b1565b9050919050565b6000602082019050818103600083015261386b816133d4565b9050919050565b6000602082019050818103600083015261388b816133f7565b9050919050565b600060208201905081810360008301526138ab8161341a565b9050919050565b60006020820190506138c760008301846134b4565b92915050565b60006138d76138e8565b90506138e38282613b85565b919050565b6000604051905090565b600067ffffffffffffffff82111561390d5761390c613cbd565b5b61391682613cec565b9050602081019050919050565b600067ffffffffffffffff82111561393e5761393d613cbd565b5b61394782613cec565b9050602081019050919050565b6000819050602082019050919050565b600081519050919050565b600081519050919050565b600081519050919050565b6000602082019050919050565b600082825260208201905092915050565b600082825260208201905092915050565b600082825260208201905092915050565b600081905092915050565b60006139db82613b07565b91506139e683613b07565b9250827fffffffffffffffffffffffffffffffffffffffffffffffffffffffffffffffff03821115613a1b57613a1a613c30565b5b828201905092915050565b6000613a3182613b07565b9150613a3c83613b07565b925082613a4c57613a4b613c5f565b5b828204905092915050565b6000613a6282613b07565b9150613a6d83613b07565b925082821015613a8057613a7f613c30565b5b828203905092915050565b6000613a9682613ae7565b9050919050565b6000613aa882613ae7565b9050919050565b60008115159050919050565b60007fffffffff0000000000000000000000000000000000000000000000000000000082169050919050565b600073ffffffffffffffffffffffffffffffffffffffff82169050919050565b6000819050919050565b82818337600083830152505050565b60005b83811015613b3e578082015181840152602081019050613b23565b83811115613b4d576000848401525b50505050565b60006002820490506001821680613b6b57607f821691505b60208210811415613b7f57613b7e613c8e565b5b50919050565b613b8e82613cec565b810181811067ffffffffffffffff82111715613bad57613bac613cbd565b5b80604052505050565b6000613bc182613b07565b91507fffffffffffffffffffffffffffffffffffffffffffffffffffffffffffffffff821415613bf457613bf3613c30565b5b600182019050919050565b6000613c0a82613b07565b9150613c1583613b07565b925082613c2557613c24613c5f565b5b828206905092915050565b7f4e487b7100000000000000000000000000000000000000000000000000000000600052601160045260246000fd5b7f4e487b7100000000000000000000000000000000000000000000000000000000600052601260045260246000fd5b7f4e487b7100000000000000000000000000000000000000000000000000000000600052602260045260246000fd5b7f4e487b7100000000000000000000000000000000000000000000000000000000600052604160045260246000fd5b6000601f19601f8301169050919050565b7f436f756e7465723a2064656372656d656e74206f766572666c6f770000000000600082015250565b7f4552433732313a207472616e7366657220746f206e6f6e20455243373231526560008201527f63656976657220696d706c656d656e7465720000000000000000000000000000602082015250565b7f4552433732313a207472616e736665722066726f6d20696e636f72726563742060008201527f6f776e6572000000000000000000000000000000000000000000000000000000602082015250565b7f4552433732313a20746f6b656e20616c7265616479206d696e74656400000000600082015250565b7f4552433732313a207472616e7366657220746f20746865207a65726f2061646460008201527f7265737300000000000000000000000000000000000000000000000000000000602082015250565b7f4552433732313a20617070726f766520746f2063616c6c657200000000000000600082015250565b7f4552433732313a206f70657261746f7220717565727920666f72206e6f6e657860008201527f697374656e7420746f6b656e0000000000000000000000000000000000000000602082015250565b7f4552433732313a20617070726f76652063616c6c6572206973206e6f74206f7760008201527f6e6572206e6f7220617070726f76656420666f7220616c6c0000000000000000602082015250565b7f4552433732313a2062616c616e636520717565727920666f7220746865207a6560008201527f726f206164647265737300000000000000000000000000000000000000000000602082015250565b7f4552433732313a206f776e657220717565727920666f72206e6f6e657869737460008201527f656e7420746f6b656e0000000000000000000000000000000000000000000000602082015250565b7f45524337323155524953746f726167653a2055524920736574206f66206e6f6e60008201527f6578697374656e7420746f6b656e000000000000000000000000000000000000602082015250565b7f7072696365206d75737420626520657175616c20746f206c697374696e67207060008201527f7269636500000000000000000000000000000000000000000000000000000000602082015250565b7f4552433732313a206d696e7420746f20746865207a65726f2061646472657373600082015250565b7f45524337323155524953746f726167653a2055524920717565727920666f722060008201527f6e6f6e6578697374656e7420746f6b656e000000000000000000000000000000602082015250565b7f4f6e6c79206974656d206f776e65722063616e20706572666f726d207468697360008201527f206f7065726174696f6e00000000000000000000000000000000000000000000602082015250565b7f4552433732313a20617070726f76656420717565727920666f72206e6f6e657860008201527f697374656e7420746f6b656e0000000000000000000000000000000000000000602082015250565b7f4552433732314d657461646174613a2055524920717565727920666f72206e6f60008201527f6e6578697374656e7420746f6b656e0000000000000000000000000000000000602082015250565b7f4552433732313a20617070726f76616c20746f2063757272656e74206f776e6560008201527f7200000000000000000000000000000000000000000000000000000000000000602082015250565b7f7072696365206d757374206265206174206c6561737420310000000000000000600082015250565b7f6f6e6c79204f776e65722063616e2075706461746520746865206c697374696e60008201527f6720707269636500000000000000000000000000000000000000000000000000602082015250565b7f4552433732313a207472616e736665722063616c6c6572206973206e6f74206f60008201527f776e6572206e6f7220617070726f766564000000000000000000000000000000602082015250565b7f506c657365207375626d6974207468652061736b696e6720707269636520696e60008201527f206f7264657220746f20636f6d706c6574652074686520707572636861736500602082015250565b61431281613a8b565b811461431d57600080fd5b50565b61432981613aaf565b811461433457600080fd5b50565b61434081613abb565b811461434b57600080fd5b50565b61435781613b07565b811461436257600080fd5b5056fea26469706673582212209ac2669af79ab04f9a88ca596bbdc35657a174849ffed374b80abc94dd5a2c7164736f6c63430008040033",
  "linkReferences": {},
  "deployedLinkReferences": {}
}